:20000000483F0020019A000001CA011001CA011001CA011001CA011001CA011001CA011076
:1C00200001CA011001CA011001CA011001CA011001CA011001CA01103FCA011082
:20003C009EB524482249244A08300860234917880968D7B1224A1268114216D0214A126864
:20005C00114204D1204A1268128811420DD01F4A4FF489771468009709A301931C4F1D4BDC
:20007C00029018683A8801A3A0479EBD627574746F6E5F736572766963652E6300C046C067
:20009C00526567697374657265642063616C6C6261636B7320746F206170706C6963617405
:2000BC00696F6E2E2053747275637420257000C048140020F807002018F70100D4F6010020
:2000DC00400500003C05000044050000E8F6010084050000F0F60100014908607047C04677
:0400FC000C2B0020A9
:200100003C000000000000000000000034010000000000000000000001000000000000006D
:1C01200000000000000000000000000001000000000000000800000000000000BA
:20013C00340000000000000000000000680100000000000000000000010000000000000005
:14015C00010000000000000000000000080000000000000086
:2001700030000000000000000000000098010000040000000000000001000000FFFFFFFFA5
:10019000FF00000001000000080000000000000057
:2001A0002C0000000000000000000000C4010000040000000000000001000000FFFFFFFF4D
:0C01C000FFFFFFFF08000000000000002F
:2001CC0034050000E401000099A1011095A70110A5C2011009B2011045B80110000000000B
:0801EC00000000002E000000DD
:2001F400280000000000000000000000140200000000000000000000FFFFFFFF00000000B1
:080214000800000000000000DA
:20021C00300500003002000069C201106DC101101FC2011095BA011000000000000000008E
:04023C002C00000092
:20024000300500005402000075C20110A9B601109DBF011049B601100000000000000000DE
:040260002D0000006D
:200264002400000000000000000000008002000000000000000000000000000008000000CC
:040284000000000076
:20028800240000000000000000000000A40200000000000000000000000000000800000084
:0402A8000000000052
:2002AC00240000000000000000000000C8020000000000000100000000000000080000003B
:0402CC00000000002E
:2002D000000000005C180020040000000000000000000000200000007001000030000000B5
:2002F0001C020000641800200400000000000000000000000C0000003004000018000000D8
:20031000400200006C1800200400000000000000000000002400000048040000180000005B
:20033000000000007418002004000000000000000000000010000000A00100002C00000020
:20035000CC0100007C1800200400000000000000000000002000000064020000240000005E
:20037000FFFFFFFF84180020040000000000000000000000280000008802000024000000DB
:20039000FFFFFFFF8C180020040000000000000000000000580000003C01000034000000C0
:2003B000FFFFFFFF94180020040000000000000000000000100000006004000018000000D5
:2003D000FFFFFFFF9C1800200400000000000000000000001C000000AC020000240000004B
:2003F000FFFFFFFFA418002004000000000000000000000038000000F401000028000000BC
:20041000FFFFFFFFAC18002004000000000000000000000054000000000100003C00000057
:1804300018000000000000000000000040040000080000000000000050
:1804480018000000000000000000000058040000080000000000000020
:18046000180000000000000000000000700400000800000000000000F0
:0804780002000000A8F60100DB
:040480000CF077B84D
:040484000100000073
:0404880000008C0FD5
:04048C000000BC0FA1
:040490003200000036
:040494000100000063
:04049800E817002041
:04049C00000200005A
:0404A0000000000058
:0404A40001CA011078
:0404A8000000000050
:0404AC00000000004C
:0404B0000800000040
:0404B40000007612BC
:0404B800D01600203A
:0404BC00010000003B
:0404C0000018002000
:0404C400080000002C
:0404C8000000000030
:0404CC00000000002C
:0404D0000000000028
:0404D4000000000024
:0404D8000000000020
:0404DC00010000001B
:0404E00038170020A9
:0404E400060000000E
:0404E800010000000F
:0404EC003C1600209A
:0404F0000000000008
:0404F4000000000004
:0404F80000020000FE
:0404FC0000000000FC
:02050000704742
:020502002800CF
:020504000100F4
:020506002400CF
:020508002C00C5
:02050A002D00C2
:02050C002E00BF
:02050E000100EA
:0105100001E9
:08051400030000006CF6010079
:08051C000000000000000000D7
:040524000000930D33
:040528000000AD0D15
:04052C0087C401106F
:04053000380500008A
:040534003805000086
:0405380000000000BF
:04053C0090610000CA
:0405400090610000C6
:0405440000000000B3
:040548000018002077
:04054C0025C10000C5
:040550002000000087
:04055400ACF5010001
:0405580094F4010016
:04055C000DC30110BA
:0405600037C100009F
:04056400DFC50000EF
:0405680099C801101D
:04056C009BC8011017
:040570000000000087
:0405740098C7000024
:04057800B0F20100DC
:04057C00C8F20100C0
:0405800098F20100EC
:020584000280F3
:020586000380F0
:02058800C0179A
:02058A0001006E
:01058C00016D
:040590000000000067
:040594000000000063
:04059800000000005F
:04059C00000000005B
:0405A00027C600006A
:0405A40025A300008B
:0405A8000DB400008E
:0405AC0019AC000086
:0405B00047A9000057
:0405B40049AC00004E
:0405B8004589000071
:0405BC0053C3000025
:0405C000398C000072
:0405C40011C8011049
:0405C80021C8011035
:0405CC000800000023
:0405D0002400000003
:0405D400180000000B
:0405D80028000000F7
:0405DC0020000000FB
:0405E0003C000000DB
:0405E4000C00000007
:0405E80034000000DB
:2005EC002DE9F04FADF1940D0AF02EFEA148DFF898B20168A0480FF22C2805882391DDB1B6
:20060C009E480068014217D09D480068014204D19C480068008801420ED0584604684FF4AF
:20062C00CF7784A600230097BF4F0196BD4E02933A8830684346A047BC4C4FF0000A04F12F
:20064C0050065146C4F824A030460CF09BF804F15C075146384626610CF094F804F180002B
:20066C0004F18C01676106F091FFDFF82093206200BB48460168DDB180480068014217D0F8
:20068C007F480068014204D17E480068008801420ED0584606684FF4DA77B3A30097A24FB2
:2006AC000193A04BCDF808A03A8818684346B0470CF064F804F1740004F1980106F066FFD6
:2006CC002146C86110BB48460168DDB16B480068014217D06A480068014204D1694800689E
:2006EC00008801420ED0584606684FF4DD77C9A300978D4F01938B4BCDF808A03A881868AA
:20070C004346B0470CF03AF82046C069C0490BF071FE00B348460168DDB15848006801429A
:20072C0017D057480068014204D156480068008801420ED0584606684FF4E077BDA300975B
:20074C00794F0193774BCDF808A03A8818684346B0470CF013F806A85146242208230CF087
:20076C0009F8CA4F4FF47A7932260D20C6493A680C9006AB04F1EC00B9FBF2F292B2724328
:20078C000BF0F4FF39680E2006ABB9FBF1F189B24E43BD490C9004F5887032460BF0E6FF92
:2007AC00386841F28836524606ABB9FBF0F081B206FB01F0B6490B9004F59A700BF0D6FF2D
:2007CC000126ADF80EA040F2053003AA8DF80C60314602F0A5F940F2063002210DF10E02EE
:2007EC0002F09EF9621C4FF44270314602F098F904F1680740F207300C213A4602F090F902
:20080C00239F002D53D01D48006807424FD01C48006807423AD11B4800680088074246D0B3
:20082C0034E0C04670726F6A6563745F7A65726F2E6300C0496E697469616C697A696E6740
:20084C00207468652075736572207461736B2C2068617264776172652C20424C45207374B9
:20086C0061636B20616E642073657276696365732E00C046D4F6010018F701004005000012
:20088C003C05000044050000E8F6010008F0BAFF40F2FB15594672A30C6800952249019334
:2008AC00204D02900A88286843463946A0470620A02109F09FFD0720A02109F09BFD0820FF
:2008CC00A02109F097FD0920A02109F093FD30461E2109F08FFDCDF810A034468DF816A0E7
:2008EC004FF481608DF8144004218DF8154004AA8DF8174009F064FD4FF48060314605AAC3
:20090C0009F05EFD40F2024031460DF1150209F057FD40F2034031460DF1160209F050FDE2
:20092C0006E0C046F0F6010084050000C007002040F2064031460DF1170209F041FD0BF030
:20094C0000FEFFF797FD0BF03BFB0BF01BFD0AF0DFFC0BF067FB4F480AF0EEFC4F48007803
:20096C0006F046FB14E0C0464572726F7220696E697469616C697A696E6720626F617264DD
:20098C00204C45442070696E7300C046D0F6010005F082FB05F0D0FE06F022FAFFF748FB2F
:2009AC0006F0C4F90FA85146282207F0F0F93A4919A8282206F068FC504631460FAA02F060
:2009CC0019FD304631460FAA02F014FD504631460FAA00F059FF304631460FAA00F054FF55
:2009EC005046282119AA00F011FC304614210FAA00F00CFC0BF0FAF80AF0F6F90BF086FD9C
:200A0C000BF088FD0BF014FD25B0BDE8F08FC046816100004572726F7220696E69746961B5
:200A2C006C697A696E6720627574746F6E2070696E7300C04572726F72207265676973740F
:200A4C006572696E6720627574746F6E2063616C6C6261636B2066756E6374696F6E00C026
:200A6C004E616D6520696E20616476657274446174612061727261793A201B5B33336D25CB
:200A8C00731B5B306D00C04699850000C4F60100F1C40000F015002031F30100C0070020FF
:200AAC002DE9F04F09AFADF13C0D00240FF2F018DFF8FCB1DFF800A208903D880B93387960
:200ACC000A92DFF8F8910C90FF200E9008780991022809D10846594640680F88008842F6AB
:200AEC000216864200F0EC80099808F011FC5946DFF8C0B106469BA0002E0F880D963ED024
:200B0C00761E1FD058460168D7B1A7480068014216D0A6480068014204D1A54800680088EC
:200B2C0001420DD0A54840F22927A6A605680097A14B01969F4F02941A8838684346A84709
:200B4C000A200CE14A465146002F4FF014090968079202F1040A3DD0934A1268114239D0F5
:200B6C00924A1268114204D1914A12681288114230D0934A16684FF4097399A21AE04A46CA
:200B8C0051464FF028090968079202F1020A0FB3854A126811421DD0844A1268114204D17E
:200BAC00834A12681288114214D0854A166840F216238DA2009301900292089803900B9B99
:200BCC00049305950C987C4B06901A88794B18684346B047A9452FDD0B9E7619B1451FDA50
:200BEC0058460168D7B170480068014216D06F480068014204D16E480068008801420DD014
:200C0C006E484FF40D777AA3066800976A4F0193684B02943A8818684346B0470D242AE096
:200C2C0009980A990B9AC068281806F02DFBAAF800600D980E901EE058460168D7B15A48C5
:200C4C000068014216D059480068014204D158480068008801420DD0584840F22F276DA3EE
:200C6C0006680097544F0193524B02943A8818684346B04707240E98FF280ED007988068DA
:200C8C0058B107684FB10B980D9A0A9B2D18A8B20090089841F23011B84720465FE0C046F4
:200CAC00646174615F736572766963652E6300C018F70100D0F60100D4F601000013002018
:200CCC0051460868002F82462BD0374800681AEA000F26D0354800681AEA000F05D13448D5
:200CEC00006800881AEA000F1BD00C98FE280CBF51A758A7099808F00BFB314940F2FB1315
:200D0C000E68009356A20192029008980390049729490594274B06940A881868514643468A
:200D2C00B047009503200B9B09990A9A0190089808F05CF84A4608321768061C0ED16FB125
:200D4C00786858B1099808F0E3FA02460B980A9B00907C68089841F23011A047F0B20FB0C8
:200D6C00BDE8F08F5772697465417474724342203A20257320636F6E6E48616E646C6528C4
:200D8C00256429206C656E28256429206F666673657428256429206D6574686F642830786A
:200DAC00253032782900C046400500003C05000044050000F0F6010084050000E8F60100DB
:200DCC00ECF6010041747472696275746520776173206E6F7420666F756E642E00C046C064
:200DEC0053747265616D00C0537472696E6700C0496E76616C69642076616C7565206C658F
:200E0C006E677468207761732072656365697665642E00C0416E20696E76616C6964206F10
:200E2C00666673657420776173207265717565737465642E00C046C02D20726573746F7251
:200E4C00696E6720626F6E64656420737461746500C046C02D204F54412077726974650039
:200E6C005772697465417474724342202843434344293A20706172616D3A20256420636F7D
:200E8C006E6E48616E646C653A202564202573002DE9FE4FB84C0F460646F80B80F0478140
:200EAC00B80880F0D480B54DDFF8D892DFF8E0B2DFF8E882DFF8F4A22C68B80F67D2B048BC
:200ECC000678002E47D1380947D3AF4801264946067000240C70204606F0BFFAAB48FFF726
:200EEC0003F9AC49224658460BF084FBAA48017801291CD141460B78CBB9A94E306880B1A5
:200F0C000BF068F82B68A8493668A64D0A68C01A000B82182860B2EBC61F28BF0C6007D22E
:200F2C000A60A4484FF000510AF0F0FF2CE00670504640F609010180417B01F0F00141F02E
:200F4C00010141734480017B01F0F00101734460974E306018E0390914D2B80BC0F0048108
:200F6C009D48001D0BF051FB061C08D0706830B17468F068B6F91C1098A20CCAA04727F448
:200F8C000057F1E00021017027F00807ECE0ECB104200AF025FDC8B10BF01CF8864A2968D3
:200FAC001060814226BF401A401E401A000BF060F06800F58D70F060F16840F6C4108842D9
:200FCC0003D340F2EE228A4200D9F0600024D6F818C02C60BCF1000F10D050460D300078BB
:200FEC0010F00F0F0AD1708C40F60901814205D17CA20CCA30466FF48071E0476F495846DC
:20100C0022460BF0F7FA4546287850B10220ADF8000068460AF0AEFB2C70BDF80800684922
:20102C00088049460120674A674B087010781C70401C107019200BF0E5F8756925B16BA2CF
:20104C000CCA30462146A84727F000578CE004F10C0A50460BF0D9FA061C5FD009F094F9C2
:20106C007368B2690025B561E3B1F37F42F002024FF00009904603F007035B1E07D05B1E13
:20108C0003D09B1E06D15BA002E05CA000E05DA090E800037268F068B6F91C104B46944638
:2010AC004246E0470BF05EFB8046B4F91200401C6FF31F306082E0681F30017801F07F012C
:2010CC00017050460AF09AFE40460BF047FBF068B0F99410B4F9122091421FD13B4909785C
:2010EC0001291BD090F896409CB904688CB1384909680968B1F1FF3F10D0364909687030C0
:20110C00B4FBF1F10BF026FBF06870300BF01EFB04E080F89650284607F0DCFB50460BF0FB
:20112C0074FA27F0020708B147F002071CE00BF019FB0146204608300BF067FA0646B46967
:20114C0008460BF00BFBA0080CD25EB17068B169A143B16130B17568F068B6F91C100023A3
:20116C002246A84727F480471FB1124839460AF0CDFEBDE8FE8FC046B82A0020FC2A00203C
:20118C001F2B00201B2B0020192B0020CD8000006C2A002085B500001D2B0020182B002007
:2011AC00F82A0020042B0020EC260020CC2A00200010044068290020002B0020F1560000B3
:2011CC00302A0020212B00201A2B0020E2180020082B0020C4F60100B82A0020000000008E
:2011EC002000000000000000000000020000000000000004000000000000001000000000AD
:20120C000000004000000000000000202DE9F04F05467F487F4CDFF800A2DFF800B2DFF857
:20122C0000E20F46ADF1340D0FF2302C0FF2F4182E1C01880892E068079145D0761E21D03B
:20124C00BC48079F0168002F00F0DE80BA480068014200F0D980B9480068014205D15046E4
:20126C0000680088014200F0CF80B6484FF49A7770A6046800975B460196B14F02951A8814
:20128C00386879E0261D814604F1100300294FF014020A96704609934FF001010B9205687C
:2012AC000C9142D0A448006805423ED0A3480068054204D1504600680088054235D04FF446
:2012CC0098736DA200211FE0A61C04F1240300294FF000020A96704609934FF028010C9288
:2012EC0005680B9121D09448006805421DD093480068054204D1504600680088054214D060
:20130C0040F225135EA20C998F4806680093CDF804C002920397049105915B4606918849EF
:20132C001A88086843462946B0470B98B84226DA8048079E0168002E66D07F480068014257
:20134C0062D07E480068014204D1504600680088014259D07C4840F24D16046800964AA5CD
:20136C0001950297002303930B9A04925E460593734D0693328828684346A04744E009982A
:20138C0008993A4605F080FF0C9E0A98002E07803AD00798294600282BD067480068014216
:2013AC0027D066480068014204D150460068008801421ED05846644B614E028899F80270BC
:2013CC001D683068002F08BF3DA303D0012F0CBF42A348A34FF4A27600964BA70197B9F844
:2013EC0000600296039300270497059743460697A8472078554F099904F14C020623009006
:20140C004846019706F02AF80DB0BDE8F08FC04618F7010000130020440500008405000086
:20142C00D4F60100646174615F736572766963652E6300C0536574506172616D65746572CD
:20144C003A20506172616D6574657220232564206E6F742076616C69642E00C053657450AE
:20146C006172616D65746572203A202573206C656E3A20256400C04653747265616D00C089
:20148C00537472696E6700C04C656E677468206F75747369646520626F756E64733A204C39
:2014AC00656E3A202564204D696E4C656E3A202564204D61784C656E3A2025642E00C046A8
:2014CC001B5B33336D4E6F74692F696E642064697361626C65641B5B306D00C04E6F7469EE
:2014EC006669636174696F6E20656E61626C656400C046C0496E6469636174696F6E20655B
:20150C006E61626C656400C0547279696E6720746F2073656E64206E6F74692F696E643AD1
:20152C0020636F6E6E48616E646C652025782C20257300C0D0F60100400500003C050000D7
:20154C00F0F60100E8F60100ECF60100F12800002DE9F04F09AFADF13C0D009002923888E5
:20156C0001911E46ADF83400101C08BF002000F0828100274FF0010B00F10109B846DA46FF
:20158C006BE1252940F062811078521C02922D2818BFADF8228004D11078ADF822B0521C53
:2015AC00029230281CBF4246434605D1114608785B465A46491C02912A284FF0FF3516D1B5
:2015CC0028460B93346809900299CDF81C80E01C4B1C20F00300001D306050F8044C087887
:2015EC000293002C44BFADF822A0644212E0444609E0610001EBC40140180299A0F13004DF
:20160C000878491C0291302801DB3A28F1DB0B93294609912E282BD10299087843462A28F5
:20162C0001F10101029111D1099330680794C01C20F00300001D306050F8045C002D48BFEE
:20164C00454608780995491C029112E045460AE0690001EBC50140180299A0F13005087822
:20166C002B46491C0291302801DB3A28F0DB099307940AB122460B926C2804D04C2818BFEA
:20168C00ADF8208005D102990878ADF820A0491C029103A9CDF8288007AB0E9164280C9316
:2016AC0000F08B80692800F08880BDF834C0752872D078286ED06F286AD0702850D0632820
:2016CC003DD073281ED0019802990128A1F10101029115D96B490C68B5F1FF3F03D0A8422D
:2016EC0088BF6D1C00D8019D0995684602A9324607ABA047C71902990A9801F1010974E023
:20170C0040462AE030680299C01C20F00300001D306050F8040CBCF1000F01F10109014607
:20172C0008B956A001460E910AF09AFC0A90B5F1FF3F5BD0A842C4BF281C0A9056E03068AE
:20174C00C01C20F00300001D306010F8040C5D468DF80C0002990A95584601F1010945E09C
:20176C00082035680B90E81C20F00300001D306050F8041C0822102307A806F0F7FD401E7D
:20178C000E904021017002990E9801F1010929E0082302E0102300E00A230299306801F115
:2017AC000109C01C20F00300001D306050F8041CAA42BCBF2A1C0B9210E00299306801F1B0
:2017CC000109C01C20F00300001D306050F8041CAA42BCBF2A1C0B926FF0090307A806F095
:2017EC00C5FD0E900C9D281A0A90079CBDF82250241A65B906E06846202101AA09F0BEFC9F
:20180C00079C7F1C641E0794F5D50A9800E007940546401E0A9075B9BDF82200E8B10798FA
:20182C00401E079019D46846202101AA09F0A6FC07987F1CF4E70E98411C0E91017801AAAA
:20184C00684609F09BFC0A987F1CE1E7684601AA09F094FC7F1C09F101094A46029812F884
:20186C00011C401C002902907FF48BAE009808B14146017038460FB0BDE8F08F286E756C5B
:20188C006C2900C0FCF601002DE9F04F0546BD4CBB48DFF8FCB2DFF8FCA2DFF80093DFF80D
:2018AC0004E30F46ADF1340D0FF2FC1C0FF2BC182E1C089221690288E06807923CD0761E9A
:2018CC0020D0B1480168171C00F0CD80AF480068014200F0C88058460068014205D15046AB
:2018EC0000680088014200F0BE80AD484FF4A57763A6046800974B460196A74F02951A88C4
:20190C003868AEE0A61D7046A31C0B91002A0A96056809933AD09D480068054236D05846A4
:20192C000068054204D150460068008805422DD04FF4A37363A217E00B90261D7046631CE5
:20194C000A96056809930AB39048006805421DD058460068054204D15046006800880542B2
:20196C0014D040F23B1359A28F4806680093CDF804C0029203970021049105914B460691F9
:20198C0085491A88086843462946B047022F44DA002F42D0099808993A4605F075FC079E0F
:2019AC000A982946002E07802BD078480068014227D058460068014204D150460068008854
:2019CC0001421ED04846784B0288734E0B981D6887783068002F08BF3EA703D0012F0CBFC6
:2019EC0043A749A74FF4AD734CA600930B9B01961E88029603970027049705974346069780
:201A0C00A8472078694F099904F11402072300900B98019705F022FD25E05C4D5A4C0798D2
:201A2C002A682168061C1ED011421CD058460068014204D1504600680088014213D05A48C4
:201A4C0040F26316046800963FA50195029701230393002204934E4605924F4D069232882E
:201A6C0028684346A0470DB0BDE8F08F627574746F6E5F736572766963652E6300C046C036
:201A8C00536574506172616D657465723A20506172616D6574657220232564206E6F742015
:201AAC0076616C69642E00C0536574506172616D65746572203A202573206C656E3A20255F
:201ACC006400C046425554544F4E3100425554544F4E30001B5B33336D4E6F74692F696E8E
:201AEC00642064697361626C65641B5B306D00C04E6F74696669636174696F6E20656E6110
:201B0C00626C656400C046C0496E6469636174696F6E20656E61626C656400C05472796907
:201B2C006E6720746F2073656E64206E6F74692F696E643A20636F6E6E48616E646C65203F
:201B4C0025782C20257300C04C656E677468206F75747369646520626F756E64733A204C68
:201B6C00656E3A202564204D696E4C656E3A202564204D61784C656E3A2025642E00C046E1
:201B8C0018F7010040140020D0F60100400500003C05000044050000F0F6010084050000AF
:201BAC00E8F60100D4F60100ECF60100B12600002DE9F04F09AFADF1440D08900B930A92E7
:201BCC00099138793F880C90084607F013FCB249DFF8CCA2DFF8CCB2DFF8CC927B4B0E88D1
:201BEC0000240FF2EC180546FF2084A2002D0E90B149B2480D953DD06D1E1FD0A7480168E0
:201C0C00D6B150460068014216D058460068014204D148460068008801420DD0A54840F22F
:201C2C00ED176FA605680097A14B01969F4F02941A8838684346A8470A20C4E000F1040CEB
:201C4C00002E07900968CDF83CC03CD050460068014238D058460068014204D14846006818
:201C6C00008801422FD018464FF4F4730568009373A319E000F1020C07900968CDF83CC0AF
:201C8C000EB35046006801421DD058460068014204D1484600680088014214D018464FF4E5
:201CAC00ED730568009368A301920293089803900B9A049205970C987D4B06901A887B4B11
:201CCC0018684346A847002F4BD10B9D60A2ED19022D27DAC5B90C98182818BF122813D17E
:201CEC0050466E4900680968002E38D0014236D058460068014204D1484600680088014254
:201D0C002DD040F201261FE009980A990B9AC068381805F0B9FA002D42D00D980E900F9E2A
:201D2C0035803DE05D480168CEB150460068014215D058460068014204D148460068008876
:201D4C0001420CD04FF4FC765A4805680096584B0192564E02941A8830684346A8470D24AB
:201D6C001EE04E480168D6B150460068014216D058460068014204D14846006800880142CD
:201D8C000DD04C4840F2F3163AA305680096484E0193464B0294328818684346A84707247D
:201DAC000E98FF280ED00798806858B106684EB10B980D9A0A9B3F18B8B20090089841F25C
:201DCC001011B047204611B0BDE8F08FECF601006C65645F736572766963652E6300C04695
:201DEC0041747472696275746520776173206E6F7420666F756E642E00C046C05772697471
:201E0C0065417474724342203A20257320636F6E6E48616E646C6528256429206C656E28A4
:201E2C00256429206F666673657428256429206D6574686F64283078253032782900C046C4
:201E4C004C45443100C046C04C45443000C046C0496E76616C69642076616C7565206C65EA
:201E6C006E677468207761732072656365697665642E00C0416E20696E76616C6964206FA0
:201E8C00666673657420776173207265717565737465642E00C046C018F70100D0F60100F6
:201EAC00400500003C05000044050000F0F6010084050000E8F60100D4F6010044150020B4
:201ECC002DE9FE430646DFF8DC82DFF8DC92B2780024101C00F03581801E00F00D81401E3F
:201EEC00012840F2E180801E00F0A880401E7BD0401E59D0083800F04681801E40F04681A8
:201F0C004546B08895F83E70ADF80000052F45D001208DF80A0005F1CC000AF078FB95F85D
:201F2C003E0001281BD0042819D0032806D0022804D0F28831897089B38907E0B5F84020D2
:201F4C00B5F84210B5F84400B5F84630ADF80220ADF80410ADF80600ADF8083020E0B5F8AD
:201F6C004000F1888842D8BF081CADF802003189B5F842008842D8BF081CADF8040071899F
:201F8C00B5F844008842D8BF081CADF80600B5F84630B0898342D8BF031CDDE78DF80A40AA
:201FAC0068460AF0E9F9F1E0454605F1F0000AF02EFB7078002840F0E980F088E8823089E2
:201FCC0028837089688305F1CC000AF013F9002840F0DC80AB6A002B00F0D8801B68E88A6D
:201FEC00298B6A8B9847D1E0B08809F058FA45462146062205F1380005F0C9FEEC822C83F8
:20200C006C83B079687305F1CC000AF000FB05F1F0000AF0FCFA01244FF6FF706F79A88249
:20202C004FB9B079082814BF04200520A870204609F020FFAAE00320A870A7E0707858BB3A
:20204C00311D0A68454605F138000260898881800627AF707089A882F089E882308A2883D0
:20206C00708A6883F0784446287394F83E00012818BF02280AD11F2007F0CAFE4FF47A71E7
:20208C00024604F1CC00514308F07EF8F0787289311D08F025F87BE0707831286FD14D46F4
:2020AC0004202870204623E07778002F67D14546698AA878032A13D02A796F7921B9012A5B
:2020CC0014BF6C712C7106E0174304D005F1A80008F05AF8A878072814BF0420062007E058
:2020EC00062807D02879002808BF0324DAD00220A8704DE00724D5E77078751C00283ED170
:20210C004246F7789078D1799FB9022816D0072814D0062802D1517901290FD103280DD012
:20212C0002F1A8000AF066F840B9012009F0A2FE04E08732204606F0FDFF28702878F0B917
:20214C0024E07078D8B945460220102105F1480208F0DAFA0320102105F1580208F0D4FAA2
:20216C00F61C05F12C00B7883168878005F1680201600120A979A87006F0DCFF40B108203A
:20218C004D46287004E0B0880AF0EAF8012C06D14546686A18B1016809B1A8788847BDE82F
:2021AC00FE83C046B00C0020B20C00202DE9F04FA349A44EA54DA64CDFF898B2DFF898A289
:2021CC00DFF898920F88401E0FF2B418ADF1240D00F09080401E75D0801E61D0401E4DD074
:2021EC00401E2ED0401E17D0401E40F0C6803168002F00F0C28094480068014200F0BD80B0
:20220C002868014204D120680088014200F0B58040F26D305EA766E03168002F00F0AD8093
:20222C0089480068014200F0A8802868014204D120680088014200F0A08040F2613056A733
:20224C0051E040F2153004A903F014F804A806F0E9FF3168002F00F090807B4A126811423A
:20226C0000F08B802A68114204D122681288114200F083804FF457774EA673E03168002F13
:20228C007BD071480068014277D02868014203D120680088014270D040F269304FA722E03F
:2022AC003168002F69D068480068014265D02868014203D12068008801425ED040F2653092
:2022CC004CA710E03168002F57D05F480068014253D02868014203D12068008801424CD095
:2022EC0040F2523048A74A46146800900197002602963CE04FF4417006A902F0BBFF0021B1
:20230C008DF814109DF819308DF813109DF81A208DF811309DF818008DF812209DF81B10C9
:20232C008DF810009DF81D308DF815109DF81C208DF8173004A88DF8162009F0FBFE06A8CC
:20234C0006F070FF3168C7B13F4A1268114214D02A68114203D12268128811420DD040F282
:20236C004D372CA64A4614680097019602905B46554618682A884346A04709B0BDE8F08F74
:20238C0070726F6A6563745F7A65726F2E6300C04572726F7200C046436F6E6E656374658B
:2023AC006420616E64206164766572746973696E6700C046436F6E6E65637465642E205063
:2023CC0065657220616464726573733A201B5B33326D25731B5B306D00C046C0436F6E6E0E
:2023EC00656374696F6E2074696D6564206F757400C046C0446973636F6E6E65637465640B
:20240C00202F2049646C65004164766572746973696E670047415020697320737461727421
:20242C0065642E204F757220616464726573733A201B5B33326D25731B5B306D00C046C02A
:20244C0018F70100D4F60100400500003C05000044050000F0F6010084050000E8F6010077
:20246C002DE9FF4705468448DFF828C2DFF81092DFF81082DFF810E2DFF810A2844E078887
:20248C00687846A3162856D02A797E2A38D07B487F2A1CD00168002F6FD048460068014248
:2024AC006BD040460068014204D1704600680088014262D0604640F2D647046800973BA7DA
:2024CC0001970292574632883868A04755E00168002F52D04846006801424ED040460068B2
:2024EC00014204D1704600680088014245D0604640F2D1470468009736A20192288918E0B3
:20250C0065480168002F38D048460068014234D040460068014204D1704600680088014236
:20252C002BD0604640F2CC470468009730A20192287A0290C6E75A480168CFB148460068DF
:20254C00014215D040460068014204D170460068008801420CD0604640F2B34704680097A7
:20256C0032A2019228795746029032883868A0476888082108F04EFC30B1297905F10800FB
:20258C0009F0F6F9012005E0012002F0CBF94348056000200090BDE8FF87C04670726F6ADE
:2025AC006563745F7A65726F2E6300C052656365766965642047415454204D65737361676C
:2025CC00652E204F70636F64653A2030782530327800C0464D54552053697A6520636861DE
:2025EC006E67653A20256420627974657300C046466C6F7720636F6E74726F6C2076696F3E
:20260C006C617465642E204F70636F6465206F66206F6666656E64696E6720415454206DA1
:20262C0073673A2030782530327800C04F7574676F696E67205246204649464F2066756C44
:20264C006C2E2052652D7363686564756C65207472616E736D697373696F6E206F66206DB7
:20266C0073672077697468206F70636F64652030782530327800C04618F70100D4F6010056
:20268C00400500003C05000044050000F0F6010084050000E8F60100D0F60100D80700204A
:2026AC00D8F601002DE9F04F834609AF0846ADF1340D099397F808A00892B98807903F8830
:2026CC000A9106F0FFFD06467B48DFF8F8910588824ADFF80CE279480FF23C180FF2681C39
:2026EC00002E4FF00004C18880880B9538D0761E1FD073480168D5B148460068014216D018
:20270C0071480068014204D170480068008801420DD071484FF4EA7744A6056800976D4BA9
:20272C0001966B4F02941A8838684346A8470A206FE00D4610460B9E0168002E37D04846F5
:20274C000068014233D060480068014204D15F480068008801422AD040F2CF1349A214E0D0
:20276C00054610460B9E01680EB34846006801421DD055480068014204D15448006800880A
:20278C00014214D04FF4E27340A2704606680093CDF804C00292CDF80CB00497CDF814A023
:2027AC004C4B06941A884A4B18684346B047BD420EDB0A98E91B8142D4BF8AB2021C0998C6
:2027CC0002800798C0683918089804F05DFD1FE03B480B9F0168D7B148460068014216D029
:2027EC0039480068014204D138480068008801420DD039484FF4ED7726A605680097354BC4
:20280C000196334F02941A8838684346A847072420460DB0BDE8F08F627574746F6E5F7363
:20282C006572766963652E6300C046C041747472696275746520776173206E6F7420666F32
:20284C00756E642E00C046C052656164417474724342203A20257320636F6E6E48616E643A
:20286C006C653A202564206F66667365743A202564206D6574686F643A203078253032786C
:20288C0000C046C0425554544F4E3100425554544F4E3000416E20696E76616C6964206F08
:2028AC00666673657420776173207265717565737465642E00C046C018F70100401400201F
:2028CC00D0F60100400500003C05000044050000F0F6010084050000E8F60100D4F601003C
:2028EC00ECF601002DE9F04F834609AF0846ADF1340D099397F808A00892B98807903F88DA
:20290C000A9106F005FD06468448DFF8F0910588804ADFF804E277480FF23C180FF2641CFF
:20292C00002E4FF00004818840880B9538D0761E1FD071480168D5B148460068014216D057
:20294C006F480068014204D16E480068008801420DD06F484FF4E57743A6056800976B4B75
:20296C000196694F02941A8838684346A8470A206FE00D4610460B9E0168002E37D04846B5
:20298C000068014233D05E480068014204D15D480068008801422AD040F2C51348A214E09D
:2029AC00054610460B9E01680EB34846006801421DD053480068014204D1524800680088CC
:2029CC00014214D04FF4DD733FA2704606680093CDF804C00292CDF80CB00497CDF814A0E7
:2029EC004A4B06941A88484B18684346B047BD420EDB0A98E91B8142D4BF8AB2021C099888
:202A0C0002800798C0683918089804F03DFC1FE039480B9F0168D7B148460068014216D009
:202A2C0037480068014204D136480068008801420DD037484FF4E87725A605680097334B8F
:202A4C000196314F02941A8838684346A847072420460DB0BDE8F08F646174615F7365724E
:202A6C00766963652E6300C041747472696275746520776173206E6F7420666F756E642E58
:202A8C0000C046C052656164417474724342203A20257320636F6E6E48616E646C653A2042
:202AAC002564206F66667365743A202564206D6574686F643A2030782530327800C046C08F
:202ACC0053747265616D00C0537472696E6700C0416E20696E76616C6964206F666673659E
:202AEC007420776173207265717565737465642E00C046C000130020D0F6010040050000C6
:202B0C003C05000044050000F0F6010084050000E8F60100D4F60100ECF6010018F7010012
:202B2C00F8B5A0F2013517460E46022D40F20C818649874C874A884B2D1F0F2D04D9143D79
:202B4C004AD0AD1E1CD011E0DFE815F0BA00B500EB00DB00AE00A700FE009F00980010000C
:202B6C001000900086007A006F006200282880F2EB80022E40F0E880398807F03BFCF8BD3F
:202B8C00012E40F0E1800A469078012800F0DC80D1783878D07081B9002800F0D580107834
:202BAC00012800F0A080042800F09D80062800F09A80052800F09780F8BD3878002840F06E
:202BCC00C3801078032800F09980072800F09680052800F09380F8BD012E40F0B58038788C
:202BEC00012840F0B180254605F1F00009F002FB002840F0A98004F13E01002005F09AFA9A
:202C0C00002840F0A18004F1CC0009F000FDF8BD022E40F0998038880A28C0F29580B0F5EC
:202C2C00486F00F39180114614E0022E40F08C803888B0F5FA7F80F2878011460880F8BD2B
:202C4C00022E40F08180388806287DDBB0F5486F7ADC1946891CF1E7022E75D138880628CF
:202C6C0072DBB0F5486F6FDC1946E7E7012E6BD13878062868DA1146891F0CE0012E63D14E
:202C8C003878042860DA093105E0012E5CD13878082859DA08310870F8BD012E54D138781A
:202CAC00042851DAC91DF6E7012E4DD1387804284ADC891DEFE7022E46D138881031BDE737
:202CCC00012E41D10A46D07801283DD091783878907061B9002837D01078012803D0042827
:202CEC0018BF052830D1012009F0C4F8F8BD387850BB1078022818BF052825D109F02AFAB4
:202D0C00F8BD254600211F2205F18704204605F03EF839463246204604F0B6FA0020EE7193
:202D2C000EE0254600211F2205F16804204605F02EF839463246204604F0A6FA0120AE71B8
:202D4C003146224606F0F6F9F8BDC046B20C0020B00C0020F40C0020F00C00202DE9F04F9D
:202D6C00834609AF0846ADF1340D099397F808A00892B98807903F880A9106F03BFB06467A
:202D8C007A48DFF8F4910588814ADFF808E278480FF23C180FF2641C002E4FF000048188E0
:202DAC0040880B9538D0761E1FD072480168D5B148460068014216D070480068014204D114
:202DCC006F480068008801420DD0704840F2A11743A6056800976C4B01966A4F02941A8852
:202DEC0038684346A8470A206FE00D4610460B9E0168002E37D048460068014233D05F4863
:202E0C000068014204D15E480068008801422AD04FF4CE7348A214E0054610460B9E01683E
:202E2C000EB34846006801421DD054480068014204D1534800680088014214D040F29113FB
:202E4C003FA2704606680093CDF804C00292CDF80CB00497CDF814A04B4B06941A88494BB6
:202E6C0018684346B047BD420EDB0A98E91B8142D4BF8AB2021C099802800798C0683918CD
:202E8C00089804F001FA1FE03A480B9F0168D7B148460068014216D038480068014204D15C
:202EAC0037480068008801420DD0384840F2A71725A605680097344B0196324F02941A8869
:202ECC0038684346A847072420460DB0BDE8F08F6C65645F736572766963652E6300C04640
:202EEC0041747472696275746520776173206E6F7420666F756E642E00C046C0526561648A
:202F0C00417474724342203A20257320636F6E6E48616E646C653A202564206F6666736543
:202F2C00743A202564206D6574686F643A2030782530327800C046C04C45443100C046C0FA
:202F4C004C45443000C046C0416E20696E76616C6964206F666673657420776173207265DB
:202F6C00717565737465642E00C046C018F7010044150020D0F60100400500003C05000080
:202F8C0044050000F0F6010084050000E8F60100D4F60100ECF601002DE9F04F0746824D6E
:202FAC00B97805F1A402ADF12C0D781D924605F029FC7E4804886CA03E79DFF808B2DFF85D
:202FCC000892079069A0089069A0099078480FF258180FF2641E0FF27C1C002E4CD0761E46
:202FEC0040F09E8005681CB37248006805421FD071480068054204D17048006800880542B7
:20300C0016D0484640F2D33306680093CDF804E0CDF808C052A20392CDF810A0002105910C
:20302C005B46069166491A88086843462946B0475D487A79006A072106F080FF002C6FD092
:20304C005C48006805426BD05B480068054204D15A4800680088054262D058464946584ED1
:20306C0002887F790C683068002F0CBF0799089940F2DB3342A647E005681CB34D480068F3
:20308C0005421FD04C480068054204D14B4800680088054216D048464FF471730668009370
:2030AC00CDF804E0CDF808C039A20392CDF810A0002105915B46069141491A8808684346D5
:2030CC002946B04738487A79006A062106F036FF34B338480068054222D037480068054219
:2030EC0004D1364800680088054219D058464946334E02887F790C683068002F0CBF07997B
:20310C0008994FF4737324A60093099F019702960391002704974346059729460697A04736
:20312C000BB0BDE8F08FC04670726F6A6563745F7A65726F2E6300C056616C75652043686F
:20314C00616E6765206D73673A2025732025733A202573004C4544205365727669636500FF
:20316C004C45443100C046C06F6666006F6E00C05475726E696E6720257320257300C04642
:20318C001B5B33326D4C4544311B5B306D00C0464C45443000C046C01B5B33316D4C4544D5
:2031AC00301B5B306D00C046C007002018F70100D4F60100400500003C0500004405000029
:2031CC00F0F6010084050000ECF601002DE9F04F0128ADF1140D40F0F280DFF81492D9F863
:2031EC00DC00012840F0E9800220C9F8DC0009F0A9FA0290012006F04DFB20B1012106469A
:20320C00C9F8DC10D5E009F099FA03906E484FF00008C0F80080012008F0E2FB012818BFF6
:20322C00CDF8008004D1404605F00CFE0120009066486E4CC0F800801934D4F8FF0F11203A
:20324C0009F0E4F800280CBF46460126102009F0DDF808B146F002060F2009F0D7F808B142
:20326C0046F004060B2009F0D1F830B1584800685849006B0246088890470A2009F0C6F890
:20328C000028404618BF01204FF0805B0BF5DC7528B128685049006B0246088890474F485E
:2032AC000127076028688069014646F0200088474B48076009F0A4F800F001010191400833
:2032CC0015D2484809F007F88246BAF1040FF8D0BAF1010F06D1DBF8D8014068024641486E
:2032EC00032190474049086820F003000860404600F08EF92868D4F8FF1F806B8047019891
:20330C0001280ED0BAF1010F06D1DBF8D801406802463448394690473349086840F003007B
:20332C0008602A480760286840690146304688470B2009F06BF828B128682649C06A0246AA
:20334C00088890470A2009F061F828B128682249C06A024608889047204807600322C9F81C
:20336C00DC201F4BC3F800802868406B0146304688470128F8D1042006F08CFA1248076086
:20338C001A48D4F8FF1F01688909FCD30098012802D1384605F056FD09F026F8082006F07C
:2033AC0079FA06460398C9F8DC7009F0C3F905F0E1FB029809F0BAF902E0042600E00126BB
:2033CC00304605B0BDE8F08F0C40094000022243B801001086DF000082DF00002820086057
:2033EC0080010443004003402422084014100940F01100202DE9F04F05460F467948DFF8CD
:20340C00F0B1DFF8F0A1DFF8F4917E49ADF1240D0FF26C1C0FF230182E1C089202887B48A2
:20342C00079238D0761E1FD06F480168171C00F087806E480068014200F0828058460068B9
:20344C00014204D1504600680088014278D06C484FF48C7740A6046800974B460196664F77
:20346C0002951A88386862E00968041D002AA4F1030635D05D480068014231D0584600686F
:20348C00014204D1504600680088014228D04FF48A7342A213E00968841C064602B3534883
:2034AC00006801421CD058460068014204D1504600680088014213D04FF4867339A25248EE
:2034CC0005680093CDF804C00292039700230493059306934B461A88474B18684346A84781
:2034EC00022F00DA37BB414D3F4C07982A682168061C25D0114223D058460068014204D175
:20350C0050460068008801421AD03F484FF492760468009625A50195029701230393002243
:20352C0004934E460592344D0692328828684346A04705E0089930463A4603F0A5FE278031
:20354C0009B0BDE8F08FC0466C65645F736572766963652E6300C046536574506172616D43
:20356C00657465723A20506172616D6574657220232564206E6F742076616C69642E00C039
:20358C00536574506172616D65746572203A202573206C656E3A20256400C0464C454431F2
:2035AC0000C046C04C45443000C046C04C656E677468206F75747369646520626F756E64B7
:2035CC00733A204C656E3A202564204D696E4C656E3A202564204D61784C656E3A20256482
:2035EC002E00C04618F70100D0F60100400500003C05000044050000F0F601008405000075
:20360C00E8F60100D4F60100ECF60100441500202DE9F84FDFF8E8B10746ABF13500DFF8D6
:20362C00D4910068800880F0D68007F021FE064677480830D0F8008000254FEA28725FEA81
:20364C00985002F101020AD2C6F13E0016F10A0F4FEAE000D8BF08208242B8BF021C624BB1
:20366C00D3F87C01C0F3046008F02EFE04461868C0F3044008F028FE12198246162A05DACA
:20368C0012F10A0FB8BF6FF0090200E01522574B574802F01F0141F4F8511980006810F038
:2036AC00030F18BF0125C00828BF45F002050FB145F00405494691F90700301A052804DA91
:2036CC008879A84208BF888865D0DFF82CE10F2EA6F10F0C25DB0CEB0610A0F1F00C4FEA41
:2036EC002C27072F88BF07273C46062C88BF06245EF82400042303EB84037446E3581B1A5B
:20370C0003F0FF04E80824BFC3F307200444A80824BFC3F307400444680828BF04EB13641A
:20372C0001E0002427465EF827E0E8080EF0FF0324BFCEF307200344A80824BFCEF3074011
:20374C000344680828BF03EB1E63A4B2ACEB0727BAEB020004FB07F404F1800403EB1423F6
:20376C00D8BF0120342208F0FF0742437A43B2FBF3F04FF6FF72824238BF101C802E80B2E2
:20378C00888005DA16F1800FB8BF6FF07F0600E07F26CE718D71194A12681F280A604FF0B6
:2037AC00000208D340F2FF11814206D24008521C8142FBD301E01F208880124F0F38000923
:2037CC0042EAC00247EA0200CBF8FB0F0026CBF8FF6FBDE8F88F0D4F0B4E49460820376069
:2037EC00891D0870BDE8F88F3C1100506E62084024220840F02A00209C1300500820094086
:20380C003500094000E7A48030100940FDFDA400AC3F00502DE9F0411C4615468C4208BF18
:20382C00854282BF00230022E5E0002C08BF002D0AD100290EBF00286FF000006FF0000192
:20384C0000F0E1F8BDE8F0815FF000085FF0000E002C08BF8D429CBF2C1C0025070C47EAFB
:20386C0001470E0CB44208BFBD429EBF5FEA044444EA15445FEA0545070A47EA01670E0A54
:20388C00B44208BFBD429EBF5FEA042444EA15645FEA0525470847EAC1774E08B44208BFAD
:2038AC00BD4200F29380870847EA81778E08B44208BFBD427CD8C70847EA4177CE08B44216
:2038CC0008BFBD4266D8070947EA01770E09B44208BFBD4250D8470947EAC1674E09B4422E
:2038EC0008BFBD423AD8870947EA81678E09B44208BFBD4224D8C70947EA4167CE09B44276
:20390C0008BFBD420DD8E60146EA5566EF01B14208BFB84201D3C01BB14158EB08085EEB3D
:20392C000E0EA60146EA95664FEA8517B14208BFB84201D3C01BB14158EB08084EEB0E0EBB
:20394C00660146EAD5666F01B14208BFB84201D3C01BB14158EB08084EEB0E0E260146EAC5
:20396C0015762F01B14208BFB84201D3C01BB14158EB08085EEB0E0EE60046EA5576EF00A3
:20398C00B14208BFB84201D3C01BB14158EB08084EEB0E0EA60046EA9576AF00B14208BFD4
:2039AC00B84201D3C01BB14158EB08084EEB0E0E660046EAD5766F00B14208BFB84201D3E0
:2039CC00C01BB14158EB08085EEB0E0EA14208BFA84201D3401BA14158EB08085EEB0E0EF9
:2039EC00A34208BFAA423EBF2D0A45EA0465240A89D3734642461E4617460B4602463146BB
:203A0C003846BDE8F08170472DE9F04F0D468246DFF89C816A4C287809AF9B460FF20819DA
:203A2C00ADF1240D0228079207D140466B680688188842F60211814224D0284605F042FCE6
:203A4C005C48474601683888D0B15B480068014216D05A480068014203D1206800880142D7
:203A6C000ED05A48046840F2132734A600250097554B0196534F02951A8838684B46A04722
:203A8C000A204EE052480068002E80462BD04A48006818EA000F26D04848006818EA000FC7
:203AAC0004D12068008818EA000F1CD03879FE280CBF29A62FA6284605F004FC454940F2AF
:203ACC0001230C6800932EA201920290CDF80CA0002104963C4B05913A4E06911A88306818
:203AEC0041464B46A0473888009003270197079A5B462946504605F079F9064636480768C2
:203B0C0076B96FB1786858B1284605F0DBFBCDF800B07C68079B02464FF489515046A0474B
:203B2C00304609B0BDE8F08F627574746F6E5F736572766963652E6300C046C04174747248
:203B4C00696275746520776173206E6F7420666F756E642E00C046C02D20726573746F7248
:203B6C00696E6720626F6E64656420737461746500C046C02D204F544120777269746500EC
:203B8C005772697465417474724342202843434344293A20706172616D3A20256420636F30
:203BAC006E6E48616E646C653A2025642025730018F70100D0F60100400500003C050000D9
:203BCC0044050000F0F6010084050000E8F60100D4F60100ECF60100481400202DE9F843C6
:203BEC00814608F0FBFB002100B901216B4E30680028FCD06C4D01242D1DEF6A346009B1F4
:203C0C0008F0F2FBDFF89881C7F3072008F1BC01086008F0E3FB002100B9214630680028ED
:203C2C00FCD02F68346009B108F0DEFBC7F38440C8F8C00008F0D2FB0146002001B92046AC
:203C4C00014630680028FCD0ED69346009B108F0CBFBC5F38120C8F8D000B9F5C061C8F8AB
:203C6C00B81000F0968098F8D80068B9C8F8D410D8F8C000C8F8C800D8F8BC70C8F8C47035
:203C8C00D8F8D060C8F8CC60D8F8D410D8F8BC60002954BF02206FF00100454605F1C80382
:203CAC001A6801EB41014018411000EB917002EBA0021A60D5F8C810C5F8C46000291CDD02
:203CCC001E293DDDD5F8CC0030B93429B4BF15391E21C5F8C81025E02A29BABFD5F8C8009D
:203CEC000B381E20C5F8C800D5F8C4003F28B4BF401C3F20C5F8C4001FE0D5F8CC00032848
:203D0C0012D011F10B0FC6BFD5F8C8000B30201CC5F8C800D5F8C4000028CCBF401E0020C1
:203D2C00C5F8C400032009E011F1150FC6BFD5F8C8001530201CC5F8C8000020C5F8CC00FB
:203D4C00B5F8C400174E30214FF47F4208230090304605F0A3FC009404214FF40032112305
:203D6C00304605F09BFCB5F8C80004214FF4F80212230090304605F091FCB5F8CC002021E7
:203D8C004FF440620A230090304605F087FCBDE8F883002088F8D800BDE8F88300800C4003
:203DAC00F011002000A00C4000A00C402DE9FC416F4C204608F029FC15460E46009008F036
:203DCC00D1FC05F001078046B6F1FF3F0DD1606820B9B4F91200401C06B202E06068B0F9BD
:203DEC001C6064490020C91C0870304607F004F90326002800F0A4806168814270D0009FD7
:203E0C00DFF848C1B84231D03FB100990A68904209D0096800290091F7D1832E44D04046D7
:203E2C0008F09CFC40E0604607F028FD00990868AA0803D202680B4601461A6000220A606C
:203E4C00009078B10C340146C87F40F00400C877684607F0D3FF0146204606F0D3FB0098DC
:203E6C000028F0D1404608F079FC1CE0604607F005FDA8083ABF2068006800202060404600
:203E8C0008F06CFC0C340099C87F40F00400C877684607F0B3FF0146204606F0B3FB0098E3
:203EAC0008B1A808EFD2832629482C4A007890B928480078012846D02748FCF715F90221C1
:203ECC00104608F023F82648007801283BD02548FCF70AF937E01046022108F017F832E047
:203EEC00A90803D32168009100262660C27F0121B9401143C17708F021FC0646002F14BF1E
:203F0C0019481A4807F036FC404608F027FCA80811D3009878B10C340146C87F40F00400B1
:203F2C00C877684607F06AFF0146204606F06AFB00980028F0D1304608F0FCFB832602E0AF
:203F4C00404608F00BFC3046BDE8FC81D02900201A2B0020192B00209D0E000068290020FA
:203F6C001B2B0020596200000100020401000104B82A0020302A00202DE9F04FADF1840D07
:203F8C00209001F007FA05F065FB0024012804D107F0BCFE022808BF012459490868C0F370
:203FAC008150012805D151F80C1C0120090E884004435448007807F0A9FADFF84C81DFF844
:203FCC004CA1C8F8000030B15246FF2107467F1E02F8011BFBD120990968002501F0FF0282
:203FEC00FE2A1BD0DDF880C052462B46012701F0FF06FF2E0BD0B04203D907FA06F634421D
:20400C0001D0022079E001F0FF01354353545CF8041F5B1C01F0FF06FE2EEAD1092002F052
:20402C0055FA3B49209824220823086001A8002108F078FB4FF0010901AA3E488DF81C9030
:20404C00494608F06BFBD8F800303BB33A4E00274FF0040BBA4609FA07F0044218D105420C
:20406C0004BF07F0FF0141F4C04104D027482099C05D51F82010274802F044FDF8B24FF027
:20408C00FF3107F0D7FCD8F80030C6F800A001E0C6F800B07F1C361D9F42DCD30AA800211C
:2040AC003022082308F036FB1B4D1D4A2878002410210AAB12901948009408F027FB16A866
:2040CC0028220823214608F01DFB686816AA16491C9014481D94234608F010FB134A52F82D
:2040EC000D0C494620F4F85040F4005042F80D0C0F4BC2F8FF1F2046196021B0BDE8F08FD3
:20410C00B43F0050202B0020D4230020F4290020102B0020007FC76790F60100342A002084
:20412C005DBA000034290020399700000D30094008000940502A0020B82800202DE9F84F41
:20414C009A4693460D46044608F00CFBDFF85C810AAFB8F91220B8F91010009040F6F870AF
:20416C00891A0840082880F29280B8F91000401C6FF31F30A8F81000B8F9109007F04AFB89
:20418C00064604F1700007F079FBB56086F81EB0C6F804A0F460A6F81C9097E80C0051A01A
:2041AC0003C800251040F577D8F8002006F11007194087E80300002A5CD14046314606F034
:2041CC0021FA00285BD0A4F894904448F17F0778DFF8DCA041F08001F17784F8965067B143
:2041EC0051460F784FB1344A3449324B0570012015700A781870521C0A70009808F0AEFAD8
:20420C00D8F8040000284ED15146087800282DD12B480078012846D008F0A4FA05462948BE
:20422C000078F8B9B06804F037FE284B2C4A26491B681268086038B9284608F08FFA2448FF
:20424C00042107F063FE2EE0D0680968214C091AB1FBF3F1204608F07DFA204608F076FA5B
:20426C0028461EE01C4901200870F9E7192007F0C9FF18E04046314606F0C4F950B9B8F98E
:20428C00100000F6FF706FF31F30A8F810006FF0010905E0A4F89490F07F40F08000F077A8
:2042AC00009808F05BFA4846BDE8F88FB82A00201B2B00201F2B0020182B0020212B0020B2
:2042CC001A2B0020192B0020F82A0020C4F6010068290020D02900201C2B00201E2B002072
:2042EC00082B0020F1EFFF9F200000002DE9DF4F6548DFF88CC1DFF874B1DFF874A1DFF8ED
:20430C007491DFF87481DFF874E1078856480E1C32A313D10168002F5DD058460068014276
:20432C0059D050460068014204D1484600680088014250D040F276572CA62DE0012E17D05D
:20434C00022E48D1002A46D10168002F43D05846006801423FD050460068014204D1484620
:20436C0000680088014236D040F2875723A613E0A2B90168002F2ED05846006801422AD0F8
:20438C0050460068014204D1484600680088014221D040F27C5725A6002212E0394801687B
:2043AC00CFB158460068014215D050460068014204D148460068008801420CD04FF4B06736
:2043CC0022A660460468009701967746464602923A883068A0470090BDE8DF8F70726F6A4D
:2043EC006563745F7A65726F2E6300C050616972696E6720737461727465640052652D65DB
:20440C00737461626C69736865642070616972696E672066726F6D2073746F72656420625C
:20442C006F6E6420696E666F2E00C04650616972696E6720636F6D706C6574656420737580
:20444C00636365737366756C6C792E0050616972696E67206661696C65642E204572726FB0
:20446C00723A202530327800D4F60100400500003C05000044050000F0F60100840500005B
:20448C00E8F60100D0F6010018F701002DE9F0438046D8F80460D8F808700C46ADF1340D9E
:2044AC0008F060F93178012903D108F057F90020A3E04FF0010986F8009008F04FF92078DE
:2044CC0070706078B07060687060A068B060E068F06020693061207D3075607D7075A07D75
:2044EC00B075A069B061207F3077607F00257077A07F35623563102186F83C10B0772C465E
:20450C0074627463B462B46386F82C4086F82D4086F83D40786801F0D9FF404602F070F95B
:20452C00404603F0A1F978B935480068C068014638688847786801F05FFF08F013F9347091
:20454C0008F00CF9A04657E001A821463022082308F0E0F8CDF818803A7B09920095294A23
:20456C00B96806F1680001AB08F0D0F801A828220823214608F0C6F8396907912249CDF89E
:20458C00148006F1840001AA234608F0B7F801A824220823214608F0C5F8B0788DF81C90B6
:2045AC0038B906F1B800214601AA08F0B7F817483061707838B906F1D400214601AA08F0F8
:2045CC00ADF81348F06001A821462422082308F0D1F80694ADF8144006F1F0000D49CDF8A8
:2045EC001C800A2201AB08F0C1F80B4A06F154000421434606F064FE40460DB0BDE8F08389
:20460C00D0010010CD5E00009994000041C5000039C500002D76000021C200002DE9FC4178
:20462C005E4C574D574EDFF860815A4F94F8E410481E0B2861D8DFE800F07B2C43062343BB
:20464C00062343067664042907D001220A2945F8212C14BF0220032004E02021012045F883
:20466C00211C024684F8E200002045F8390C0827C5F8FF7FC5F8F37F45F8392CBDE8FC814C
:20468C00052914BF09200620002584F8E400356070E094F8E1700120383D002FC5F81B00DA
:2046AC0004BF0620002102D00021F160032084F8E400032045F8010C31603068800859D2D4
:2046CC0094F8E400012503280DD00021404660220523009104F0E2FF94F8E400062814BF08
:2046EC000A200720D1E702200090002160220523404604F0D3FF0420C7E707F0FBFFBDE874
:20470C00FC812249002622480E60012505600E2001F072FE022006F0D1F984F8E45084F87F
:20472C00E360BDE8FC81002038600C2578601FE01948006800680146202088472C3D41F621
:20474C001D560F2000214FF4C072072345F8010C4046C5F803600225009504F09FFF404627
:20476C0000214FF4C072072305F092FA0120386084F8E45004F1780007F0E8FFBDE8FC8116
:20478C0039400C4038600C4000A00C402C500C4004800C4034600C40A0010010F01100202E
:2047AC002DE9F04F0446564DDFF858B1564FDFF85CA1DFF85C9120790FF2C408ADF11C0D61
:2047CC00002829D0401E58D1584629680088002853D03868014250D050460068014204D10A
:2047EC00484600680088014247D04C4840F242470568009726A6019660790290A079039008
:20480C00E07900230490444F0593424E06933A8830684346A84730E0414E002128223046D6
:20482C0003F0B5FA641D27222146304602F02CFD58462968008800B3386801421DD0504638
:20484C000068014204D1484600680088014214D0324840F23B47046800971CA5019522A3DA
:20486C00029325A20392002704962B4D0597294B069718682A884346A04707B0BDE8F08FD8
:20488C0070726F6A6563745F7A65726F2E6300C056616C7565204368616E6765206D7367DB
:2048AC003A204461746120536572766963652053747265616D3A20253032783A2530327809
:2048CC003A253032782E2E2E00C046C056616C7565204368616E6765206D73673A20257387
:2048EC002025733A2025730044617461205365727669636500C046C0537472696E6700C09A
:20490C00D4F6010018F70100400500003C05000044050000F0F6010084050000ECF601008E
:20492C00180900202DE9F04F5B4C183CA7690246ADF11C0D002F64D04E48DFF84091DFF843
:20494C004081DFF840E1DFF840B1DFF840A1DFF840C106882CA32ABB47490968002E4AD0AF
:20496C0048460068014246D040460068014204D170460068008801423DD060464FF4A466ED
:20498C000568009624A2019238790290A0780390002604960596574606965E463A8830682F
:2049AC00A84728E03B48016806B34846006801421CD040460068014204D17046006800887E
:2049CC00014213D0604640F22556056800961DA60196387902900392002604960596574625
:2049EC0006965E463A883068A847A769397907F1080006F0BDFFA06907F058F90020A0613C
:204A0C00A07007B0BDE8F08F70726F6A6563745F7A65726F2E6300C053656E74206D657339
:204A2C00736167652077697468206F70636F6465203078253032782E20417474656D707460
:204A4C002025640047617665207570206D6573736167652077697468206F70636F6465207E
:204A6C003078253032782E205374617475733A20256400C018F70100D4F6010040050000EE
:204A8C003C05000044050000F0F6010084050000ECF60100D0F60100D80700200246544883
:204AAC00B0B50788107A02F1090102F10904ADF1200D002854D0401E44D0401E67D0401EF3
:204ACC0061D0401E5BD0401E10D0401E62D107F0CDFC4848C2880189511AB8BF49420A297D
:204AEC0058DD0281801D06F027FC53E04248016827B342480068014220D0414800680142E3
:204B0C0004D1404800680088014217D0A07800280CBF21A223A23E4840F2FF27056800979D
:204B2C0026A3019302920027039704970597374B0697354F1A8838681CA3A847208805F050
:204B4C0015FF27E00F88B7F5895705D0103F21D1084600F0ADFC1DE0084600F05BF819E087
:204B6C000F8841F210103F1A05D0203F12D10846FFF716FE0EE00846FEF70EFA0AE02046EE
:204B8C0000F0AAF906E0507AFDF710FB02E0084606F0DFFA08B0B0BD446973706C61796964
:204BAC006E6700C053656E64696E670070726F6A6563745F7A65726F2E6300C0426F6E64A2
:204BCC004D6772205265717565737465642070617373636F64652E205765206172652025B8
:204BEC00732070617373636F646520253036640018F70100C0070020D4F6010040050000AE
:204C0C003C05000044050000F0F6010084050000ECF601002DE9F04F0146B1F80500ADF1C3
:204C2C001C0D48B1401E04D0401E08BF0FF2A40A04E00FF2B40A01E00FF2C40A48480688CF
:204C4C000F79494ADFF824B1DFF824914A4DDFF82C8144482FA30FF2CC0E0FF2E40CA7B158
:204C6C007F1E34D10168002E31D0106801422ED058460068014204D1484600680088014256
:204C8C0025D040F2124732A610E00168FEB1106801421CD058460068014204D148460068ED
:204CAC000088014213D040F207472BA6404604680097CDF804E0CDF808C00396CDF810A01C
:204CCC00002205922B4F06922A883868A04707B0BDE8F08F496E6469636174696F6E732054
:204CEC00656E61626C6564004E6F74696669636174696F6E7320656E61626C656400C04692
:204D0C004E6F74692F496E642064697361626C656400C04670726F6A6563745F7A65726F2F
:204D2C002E6300C043434344204368616E6765206D73673A2025732025733A20257300C0E0
:204D4C00427574746F6E205365727669636500C0425554544F4E3100425554544F4E300001
:204D6C0018F70100D4F60100400500003C05000044050000F0F6010084050000ECF601002A
:204D8C002DE9F0410646524DB088ADF1200D002804BF05F10C04A0460DD005F10C040346CF
:204DAC00A62137A2204606F013FF204607F058F9281800F10C083768B8B206F03BFD40A2CD
:204DCC000CCA00F017FE40A20CCA00F013FE04F085FDA4EB080100902BA23B0CA631404624
:204DEC0006F0F6FE204607F03BF92218A8682146121B07F072FBF088D8B107F077FC354901
:204E0C000A8832B9B1680091F168034622A201911FE0F16800913169019171690291B169CB
:204E2C000391F1690491316A0591716A0691B3680EE03069009070690190B0690290F069A0
:204E4C000390306A0490002705970697F368B06802462046A62106F0BBFE204607F000F938
:204E6C0022180D2002F8010B0A2702F8017BA8682146121B07F031FB08B0BDE8F081C04677
:204E8C0023253036752000C05B2025642E25303375205D2000C046C07B6576743A20666D7A
:204EAC00743D25702C20617267733D5B307825782C2030782578202E2E2E5D7D00C046C0EF
:204ECC00000000000000F03E0000000000408F40080200208A05000030B5054646480168A9
:204EEC0046480088ADF11C0D002829D044480068014225D043480068014204D1424800687F
:204F0C00008801421CD028780D2814BF24A327A3687800280CBF28A22CA23E4804684FF4F5
:204F2C006270009032A00190029303920023049305930693364B1A88344B186828A3A047B7
:204F4C0028780D3802D0401E23D027E06A1C00200121FCF799FC304C04F59A7007F0F6FB7F
:204F6C0007F084FA2389E1881A12B2EB2122B8BF52420A2A08DC01F0FF0203F0FF039B1AD0
:204F8C00B8BF5B42022B09DB2181A01D06F0D4F904E001206A1C0146FCF776FC07B030BDE3
:204FAC00427574746F6E203100C046C0427574746F6E203000C046C01B5B33336D72656C34
:204FCC0065617365641B5B306D00C0461B5B33326D707265737365641B5B306D00C046C093
:204FEC0070726F6A6563745F7A65726F2E6300C0257320257300C046D4F6010018F701000D
:20500C00400500003C05000044050000F0F6010084050000ECF60100C00700202DE9F04134
:20502C00424C474D8046C8F38140401E02D0401E2AD025E0284620300168880C20D24FF483
:20504C00804020603A48D0F802204B0AC1F3033703F0800322F08F02134347EA0302C0F8F8
:20506C000220D0F801300E1266F30303C0F80130026801F0E70722F0E70247EA020102E047
:20508C004FF00041204601602A4E06F108000068C0F3C0070FB94020A0624FF40070206403
:2050AC0007F088F840F0300084F8C800C8F3815038B3401E03D0401E1ED002211DE0012094
:2050CC0006F08EFC07460420394604F0B9F9042006F086FC8742FAD1366826F07F4005F016
:2050EC00BDFC15480068036807214FF06022300E98474FF4806020600321042004F0A0F93D
:20510C0006E00420012104F09BF90C4805F0A6FC284600680B4947F6180700F03F0084F8B3
:20512C00CB0F094E0F803068BDE8F08140A00C400A600840A83F0050B4010010BD378600A1
:20514C006C13005070B00C402C20094070B5ADF1380D00F01FF9324908682822082340F0D3
:20516C000200086001A8002107F0CCFA2D4EB0782E4907902C48002301AA07F0BFFA00216E
:20518C003022082301A807F0C5FA002519213078284AADF81C5001AB09902548009507F05F
:2051AC00B5FA2822082301A8294607F0ABFAF07822490790204801AA2B4607F09FFA30223B
:2051CC00082301A8294607F0A5FA01241A2170781C4AADF81C4001AB09901948009507F009
:2051EC0095FA194819492A46134607F0BFFA1848FAF77AFF1849194E0C70164835704FF682
:20520C00FF728283C577164B1D70164C257016490D70174E3560154A15700EB070BDC04640
:20522C0000200940B6F6010068290020E1BE00006C2A002085B500009C290020A97000000E
:20524C00882A0020F98E0000D029002059AB000059620000142A0020182B00201D2B0020E8
:20526C001A2B0020192B00201E2B00201F2B0020FC2A00202DE9F04F0C464549CA7AADF129
:20528C002C0D84460592487B09900D7900958A7A488B4B8A0E7B91F805A091F802800492ED
:2052AC00B1F846E008904A7A088B0392CD7807900A7AC88A02920F6A0690CA79888A019252
:2052CC008A79E146A9F54079B9F11D0F10D8DFE809F05B5553514F4D4B494643413F3C3AC0
:2052EC00380F34312E2B2923201E1C0F19181716BCF1280F49DA604604F08AFD21E0099EBA
:20530C00B246D046CDF814801DE00898079007980690DDF818E005E0383108682060888896
:20532C00A08032E070460AE0B1F8440009E0B1F8420004E0B1F8400001E091F83E00034610
:20534C0012E0208021E0059804900498039001E03231E2E7039802900298009006E0019A69
:20536C0087310DE068310BE01846EAE7009D0BE02C31D2E7276008E0583100E048311022A8
:20538C00204601F081FF00E025700BB0BDE8F08FB00C00202DE9F041444C94F8E700ADF112
:2053AC00280D00286FD1394F387B01250021242284F8E7507E6884F8E6000823C4F80C612D
:2053CC0001A807F0D7F9002604F10C00069601ABADF814602E490796324607F0C7F92D4910
:2053EC0004F1300001AB324607F0C0F92A4904F1540001AB324607F0B9F9B868014628464A
:20540C008847DFF89C8025487B7B0078D8F80410C1F381571BB1032F03D184F8E150032FC2
:20542C0016D0022F14D0012F26D103201D4C009031464FF040521C23204604F02FF9009584
:20544C0031464FF400720923204604F027F913E0022005F04BFB032F0CBF4FF47A7142F2BF
:20546C001071114800685434B1FBF0F1204607F071F9204607F06AF9D8F80000C00802D2D6
:20548C00304605F033FB0AB0BDE8F08114F601004F8E0000E5770000217C0000202B00204B
:2054AC00B03F005000A00C40C4F60100F011002090B50146B1F80500ADF11C0D38B1401E91
:2054CC0003D0401E08BF18A202E01CA200E021A20879012826D1364C3648278801680FB350
:2054EC003548006801421DD034480068014204D1334800680088014214D02C4840F26F47A1
:20550C00046800971CA3019322A7029725A303930492002705972B4B06972B4F1A88386841
:20552C0011A3A04707B090BD496E6469636174696F6E7320656E61626C6564004E6F7469C6
:20554C006669636174696F6E7320656E61626C656400C0464E6F74692F496E64206469734A
:20556C0061626C656400C04670726F6A6563745F7A65726F2E6300C0434343442043686181
:20558C006E6765206D73673A2025732025733A20257300C044617461205365727669636597
:2055AC0000C046C053747265616D00C0ECF6010018F70100D4F60100400500003C050000A9
:2055CC004405000084050000F0F601002DE9F0430746880FADF1140D75D303F07DFF404DD6
:2055EC0000261C352E60394845F81C0C012001F034FF3748FAF778FDBC68B14640F60A012E
:20560C00344A6680537B118090465680107BC2F8049003F0F00300F0F000107343F00103B6
:20562C00537300E01C46636813B118888142F9D1C4F80480607B00F0F0006073264806F068
:20564C00E4FF80680088C91F81421DD0491C81421AD03B8CC3B197F82C107E8497F82D007D
:20566C00C7F8249001F0F00100F0F00087F82C1040F0010087F82D0007F12003C8F8043042
:20568C00507B00F0F0005073B868694606F082F8684606F087FDB86802F09FFE28680028C2
:2056AC00FCD02E60012006F09BF9012808D0607B00F0F00040F0010060730848FAF714FDC7
:2056CC00B86845F81C0C05B0BDE8F08301010E049D0E0000CC2A0020B82A0020A18D000067
:2056EC00001004402DE9F04106F028FB3F4D3E4EDFF8FC800446A00820D330464168E9B1E1
:20570C00002242608B690A690F6922401A4342F0020205F108038A611A68BA4301F1100771
:20572C001A6097E80C002A680C301B1C9A432A6004F068FF4046022106F0E8FB7068A1088E
:20574C0015D200F1100191E80C00002702EA04013B40002B08BF002909D081691440B060FA
:20576C000C4384614FF48041404606F0CFFB7068002837D1304606F048FF071C32D01E4859
:20578C00F9680068884228D1B86803F085FB19490860E8B905F1080138690A6810430860A6
:2057AC002B6807F1100494E80300081C1843286000222A61B86845F80C0C05F11000006828
:2057CC000028FAD0304606F019FB7760BDE8F081086803F07FF8BDE8F08140464FF48051D4
:2057EC0006F094FBBDE8F081B82A00200C10044068290020F82A0020082B00202DE9F0470D
:20580C0007467D68D7F8089090460C4606F0AAFFAE6A8246002E64D105F1F00006F02EF8D7
:20582C002C620024EC7750466C6206F097FF06F099FF2F4E3378824623B9022005F056F997
:20584C0001203070504606F089FF2A4A1068414640F480701060384604F07AFDA862C0B9F4
:20586C003846414603F0AAFEA878D0B9A96805F1B80006F037FFE8B9AC621020E87749461B
:20588C00284602F091FC06F06DFF8246307840B323E0D9F80010886B40F020008863A87818
:2058AC0010B12046BDE8F087A96805F1B80006F019FF10B1686ABDE8F0873846414603F025
:2058CC007DFE1020AC624946E877284602F06CFC06F048FF8246307818B1022005F0EEF8DA
:2058EC003470504606F03AFF4FF0FF30BDE8F087242B0020301000402DE9F047ADF1180DAA
:20590C0001F022FF3A4D4FF0030908274FF6FF78002605F13E0A2C4606F046F820BB009631
:20592C0001A80DF106016A4605F002FAE0B9BDF80400102814D160789DF8061088420FD170
:20594C0000980188884509D14088C00B08D3042005F12002014604F0D7FE01E003F0E2FD06
:20596C00009808B106F096F9208A41082DD320F0010063792179208253EA010225D073B9C8
:20598C00207A637A8DF8070005F132018DF808300A680DF109031A608988998001E08DF88C
:2059AC000790A07A8DF80F00E37A8DF810300DF1070006F0CFFC38B1636AA77023B11A688B
:2059CC0012B1196838468847208A810807D320F0020020825146304602F0ACFB208AC10850
:2059EC009AD320F00400208206F04EF894E7C046B00C00202DE9FC4191EA03084CBF4FF0BC
:205A0C0000484FF000084FEAC32545EA52554FEAC2264FEA43077F0D11BF45F00045002159
:205A2C000020BDE8FC815FF4E06E1EF1FF0E774555D04FEAC12343EA50534FEAC0224FEA39
:205A4C004104640D11BF43F0004300210020BDE8FC81744543D0E419A3FB0501A3FB06E7E3
:205A6C00A2FB06631EEB030E57F1000751F10001A2FB05631EEB060E57F1000751F10001B4
:205A8C00FF1851F10001C01951F100014CBF4FF4806E4FF4007E10EB0E0051F1000148BF34
:205AAC00641C01D4400049415FF44077FF37E41BDEBF00210020BDE8FC8117F58067BC428B
:205ACC000DD24FEAD02040EA41504FEA41014FEA113141EA045141EA0801BDE8FC8100200B
:205AEC00FF21C900C91D090551EA0801BDE8FC8130B5344CA069ADF11C0D00283FD0A178D2
:205B0C000830491CA17004F0A3F80546162D04D0A069042D00F102002AD12B482B4D01685E
:205B2C00288800282BD02A480068014227D029480068014204D128480068008801421ED0F0
:205B4C00264AA06940F20B5315680093001D11A3019300780290A078039000220492204BE3
:205B6C000592204C06921A88206806A3A84706E00088002105F04EF92846FEF7D3FE07B006
:205B8C0030BDC04670726F6A6563745F7A65726F2E6300C05265747279696E67206D6573E6
:205BAC00736167652077697468206F70636F6465203078253032782E20417474656D7074CF
:205BCC0020256400C0070020D8F6010018F70100400500003C05000044050000ECF6010098
:205BEC0084050000F0F601002DE9F04390460A68D8F800401678814600271D46ADF1140DEA
:205C0C003846531C242E0B6053D112F8016F5B1C4C2E0B600ED1AA68E41C24F00304241D87
:205C2C0054F8040C494603F02FF82968EF600127091A2960462E1AD1E41C24F00304241DE4
:205C4C0054F8040CE41C029024F00304241D54F8040C002749460390AA68ADF8047001A875
:205C6C0001F0AEFB2968EF600127091A2960532E1FD1E41C24F00304241D54F8040CE86158
:205C8C00C8F80040288B0090A968EA69D9F800004346FBF75DFCD9F80040002714B1011995
:205CAC00C9F80010D8F800402968EF60091A01272960662E0AD12B8B23B9E41D24F0070422
:205CCC00083403E0E41C24F00304241D1FB9E9690E700127EF60C8F8004005B0BDE8F08351
:205CEC0036482DE9F0410D4601683248008806AF98461646ADF1200DF8B13148006801428E
:205D0C001BD030480068014204D12F4800680088014212D0284840F295530468009311A2CC
:205D2C000192029503960023049305930693274B1A88274B186807A3A047CDF8008038880D
:205D4C002A4633460190002003F078F908B0BDE8F081C04670726F6A6563745F7A65726F4F
:205D6C002E6300C0284342292043686172616374657269737469632076616C7565206368FF
:205D8C00616E67653A20737663283078253034782920706172616D4944282564292E205383
:205DAC00656E64696E67206D736720746F206170702E00C018F70100ECF60100D4F60100EB
:205DCC00400500003C0500004405000084050000F0F601002DE9F0430646ADF11C0D06F026
:205DEC007DFC04F023FE4FF000090546CDF8009006F042FB30F0010002D00098A84202D1A6
:205E0C006FF0040059E070684C4658B1B0F1FF3F05D001A904F0F2FD30B107464CE04FF08D
:205E2C00FF3000E02046019006F054FC0199012701EB000800E001936868019906F052FC32
:205E4C0000282ED003A804F009FBD8B99DF8100002A904F0E9FA88B9B368BDF808009DF807
:205E6C001210059A984748B19DF81270B773BDF80800B081059B33614F4612E00599684647
:205E8C0005F036F80198641CB0F1FF3FD4D00028D2D006F01FFCB8EB000302D00198984271
:205EAC00C9D2009905F1080005F0A6F924B1686806F00CFC641EFAD1384607B0BDE8F083D3
:205ECC002DE9F8430746D7F80880D8F800007D68066C16F4F06F466426D1F00910D270093C
:205EEC0052D395F83C00AC6B401E844288BF041C3846214604F0A0F9A86B001BA86308E073
:205F0C00A96B384604F098F9014695F82D00A96318B9A86B002837D101E00020A86305F13B
:205F2C00840006F0CFFB2FE0F00A0ED3D8F80000002144684160A96B04F00F04202988BF3E
:205F4C002021384604F078F91AE04FF000094C4602E0A86B401EA863A86B88B138460121F3
:205F6C0004F06AF9D8F80000446814F00F04C0F80490EED0296B686B491E2963401E68639E
:205F8C00EC77384602F082F9B0090DD3AE6A5EB13846314604F0DCF9A862A86A314618B9C5
:205FAC003846091D03F00AFBBDE8F88332482DE9F0410D4601683648008806AF98461646A7
:205FCC00ADF1200DF8B12D48006801421BD02C480068014204D12B4800680088014212D0BA
:205FEC002C4840F2A2530468009311A20192029503960023049305930693244B1A88224B1C
:20600C00186807A3A047CDF8008038882A4633460190012003F012F808B0BDE8F081C046F2
:20602C0070726F6A6563745F7A65726F2E6300C028434229204368617220636F6E666967E3
:20604C00206368616E67653A20737663283078253034782920706172616D49442825642976
:20606C002E2053656E64696E67206D736720746F206170702E00C046D4F6010040050000EF
:20608C003C05000044050000F0F601008405000018F70100ECF601007FB52B48067804F0EE
:2060AC00E5FE2A4C0028E06030D005F0F3FA04F0DDFE2061002829D005F0ECFA244A04F182
:2060CC001400072103F0C2FE2248234D01682888D8B122480068014217D021480068014239
:2060EC0004D120480068008801420ED01E4840F20113056800930BA20192072302931B4B35
:20610C001A881B4B186802A3A847267000907FBD627574746F6E5F736572766963652E6378
:20612C0000C046C05265676973746572656420736572766963652C20256420617474726955
:20614C00627574657300C046C00700204014002090F30100D4F6010018F70100400500000B
:20616C003C05000044050000E8F6010084050000F0F601007FB506462B480D4601682B4818
:20618C000088F0B12A48006801421AD029480068014204D1284800680088014211D00D2D14
:2061AC000CBF11A213A2274840F203630468009317A30193224B02921A88204B186810A30B
:2061CC00A04745F0004230464FF4E02104F0E6F92846B0F10D011C4802D0491E02D12430E7
:2061EC0006F0B4FA00907FBD427574746F6E203000C046C0427574746F6E203100C046C0FE
:20620C0070726F6A6563745F7A65726F2E6300C0427574746F6E20696E7465727275707482
:20622C003A20257300C046C0D4F6010018F70100400500003C05000044050000F0F6010009
:20624C0084050000E8F60100AC080020042998B54CD1274806F0D9F9264C48B9264800F156
:20626C001F010978490838BF206803D3406800E0C06820604168214A097811604168126872
:20628C000978914206D0876927B124A20CCA6FF0FF01B847022004F029FC112000F016F99B
:2062AC0001222168164B087C1A7018B115480078012803D00E2000F009F921684968124869
:2062CC008F680FB9CF681FB10021C1610F4F07600F4A40F2FF711160002787610D49416171
:2062EC000D48F9F701FF192006F0E8F998BDC046B82A0020082B0020142A0020D0210840F6
:20630C001A2B00201D2B002000100440510007060000046002000040D9550000000000001E
:20632C000000000238B50446084602F09BF90146182004F0FFF805F06FFB80B200902C4845
:20634C0040F2FF3200232C2103F0A8F905F03AFF01461C2004F0EEF805F050FB0146142084
:20636C0004F0E8F805F00EFD0146102004F0E2F8204602F09FF801460C2004F0DBF8204669
:20638C0005F0E8FC1B4D400040F020002870204605F0ECFC40F010002870204605F00AFA0E
:2063AC000146282004F0C6F8204605F0F7FC400040F06000E870204605F0FCFCC00040F0D7
:2063CC00800005F8080C204605F000FD800040F47C40A5F89300204604F0E2FD0146082080
:2063EC0004F0A8F84FF48000A5F20911086038BD00A00C4049A10C402DE9F843044606F079
:20640C00B1F981462D48021992F8ED10491ECFB2002F82F8ED704BD12B4D05EB84052E7847
:20642C00698836F07F0788461AD1F10911D24FF08054D4F8B801806901464046884704F507
:20644C00DC742068406B0146404688470228F8D121E000EB8800D0F80011002088471AE0E8
:20646C004FF08054D4F8B801006A014640468847D4F8B801806A014640468847D4F8B801E2
:20648C00006B01464046884701210D4A0D48116001688908FCD306F03F003F2801D0FFF77E
:2064AC00ABFF687800F03F003F2801D0FFF7A4FF484606F053F9BDE8F883C046F01100202F
:2064CC00282008602820084058DF00002DE9F041064606F047F92D4D8046A91991F8ED00F8
:2064EC00421C002881F8ED204AD1294C04EB8604277807F03F003F2801D0FFF7E7FF6078BA
:20650C0000F03F003F2801D0FFF7E0FF668837F07F001AD1F80911D24FF08054D4F8B80138
:20652C00406901463046884704F5DC742068406B0146304688470128F8D121E005EB8605A4
:20654C00D5F80011012088471AE04FF08054D4F8B801C069014630468847D4F8B801406AEB
:20656C00014630468847D4F8B801C06A0146304688470121074A0848116001688908FCD34B
:20658C00404606F0EBF8BDE8F081C046F011002058DF00002820086028200840F8B52B4FB5
:2065AC0057F81D0CC0084FD22F4C29492CC904F15C002CC02CC92CC00EC9012680E80E00FA
:2065CC00FF23244D2448E16EC5F8AB3FB4F86A20C5F8FF6F00F058FEA06F804742F60B34C6
:2065EC0042F22B0045F8550C1C4945F8514C4FF480730B60002245F8212C45F83D6CC5F863
:20660C00B36FC5F8F36FD5F8F30F06F0ABF857F81D1C134A41F0040147F81D1C116821F0A8
:20662C00F05141F03451116006F098F80D48006804F01CF805F0C4FF05F0D0FF04F030F803
:20664C0005F0C1FF05F0D0FFF8BDC0462D10094008F5010055500C4000000E4000100E40D9
:20666C00003009402C200940C4140020294A2DE9F04180460126284816600768002FFCD011
:20668C00294C2A4FC020443C206007F1080001682348890804D20168090C41F0F00100E065
:2066AC0072211E4D85F85412002111638768384601F0A6FB40463946FFF734FE1C48B038E0
:2066CC00816D40F20F226FF31F418A4212D901680068C1F30363C0F3034003B15B1E0728A7
:2066EC0005D006280EBF0720801C00F00F0043EA001028703846FEF791FC0E48143800681D
:20670C00C1680220884740202060064F3E60BDE8F081C04610100940940222430260084056
:20672C00AC3F00509404604244600C40A83F00506C130050B40100107FB53048067804F0FF
:20674C00ABFB244D0028E86028D004F0A3FF224A05F14C00062103F079FB2048204C01689F
